:020000040800F2
:1000000030BC0020953D0008690300086B03000820
:100010006F03000873030008770300080000000066
:100020000000000000000000000000007B0300084A
:100030007D0300080000000017FC0008713C000868
:10004000AF3D0008AF3D0008AF3D0008AF3D0008E0
:10005000AF3D0008AF3D0008AF3D0008AF3D0008D0
:10006000AF3D0008AF3D0008AF3D0008AF3D0008C0
:10007000AF3D0008AF3D0008AF3D0008AF3D0008B0
:10008000AF3D0008AF3D0008AF3D0008AF3D0008A0
:10009000290B0008AF3D0008AF3D0008AF3D000848
:1000A000AF3D0008AF3D0008AF3D0008AF3D000880
:1000B000AF3D0008AF3D0008AF3D0008AF3D000870
:1000C000AF3D0008AF3D0008AF3D0008AF3D000860
:1000D000AF3D0008093C0008AF3D0008AF3D0008F7
:1000E000AF3D0008AF3D0008AF3D0008AF3D000840
:1000F000AF3D0008AF3D0008AF3D0008AF3D000830
:10010000AF3D0008AF3D0008090E0008AF3D0008F4
:10011000AF3D0008AF3D0008E30D0008E3390008DB
:10012000AF3D0008AF3D0008AF3D0008AF3D0008FF
:10013000AF3D0008AF3D0008AF3D0008AF3D0008EF
:100140004D0D0008AF3D0008AF3D0008AF3D000871
:10015000AF3D0008AF3D0008AF3D0008AF3D0008CF
:10016000AF3D0008AF3D0008AF3D0008AF3D0008BF
:10017000AF3D0008AF3D0008AF3D0008AF3D0008AF
:10018000AF3D0008AF3D000800F002F800F05CF859
:100190000AA090E8000C82448344AAF10107DA45E2
:1001A00001D100F051F8AFF2090EBAE80F0013F0D8
:1001B000010F18BFFB1A43F0010318479C150100FB
:1001C000BC1501000A444FF0000C10F8013B13F07D
:1001D000070408BF10F8014B1D1108BF10F8015BA0
:1001E000641E05D010F8016B641E01F8016BF9D193
:1001F00013F0080F1EBF10F8014BAD1C0C1B09D1EA
:100200006D1E58BF01F801CBFAD505E014F8016B5B
:1002100001F8016B6D1EF9D59142D6D370470000ED
:100220000023002400250026103A28BF78C1FBD8FF
:10023000520728BF30C148BF0B6070471FB511F08F
:100240001CF81FBD10B510BD0FF09CFC1146FFF748
:10025000F5FF00F009F80FF0BAFC03B4FFF7F2FF66
:1002600003BC03F06FFC000010B58AB00024A82086
:1002700003F00AFD4FF4A06003F0ACFD01F070FD47
:1002800001F097FE09A807F035FE00BF00BF00BFD0
:1002900006F096F9044600BF00BF2B480078401CCA
:1002A0002949087000BF00BF204606F08DF900BF45
:1002B00000BF00BF09A8032100220592CDE9062155
:1002C0000890104680210C22204BCDE90132CDE967
:1002D0000310032000231E4A1EA1009020480CF0AA
:1002E0007BFB00BF00BF00BF06F06AF9044600BFF9
:1002F00000BF15480078401E134908700846007872
:10030000A0B918480088002809DD00BF00BF2046BA
:1003100006F05AF900BF00BF08F0FEFB0DE000BF79
:1003200000BF204606F050F900BF06E000BF00BF46
:10033000204606F049F900BF00BF00BF09A808F039
:10034000A2F800200AB010BD5004002024090020AB
:100350008D0600084372656174207461736B000040
:100360001406002014040020704700BFFEE700BF01
:10037000FEE700BFFEE700BFFEE7704770470000E2
:100380000CB50020019000907648006840F4803061
:100390007449086000BF7348006800F400300090A2
:1003A0000198401C0190009818B90198B0F5A04F31
:1003B000F1D16C48006800F4003010B101200090C9
:1003C00001E0002000900098012846D165484030A7
:1003D000006840F08050634940310860624800681E
:1003E00040F44040604908605E48083000685D495C
:1003F000083108600846006840F40040086008467C
:10040000006840F4A05008605848091F0860081FA1
:10041000006840F08070091F086000BF5148006804
:1004200000F000700028F9D040F2057050490860D3
:100430004C480830006820F003004A490831086041
:100440000846006840F00200086000BF45480830D8
:10045000006800F00C000828F8D10CBD10B5454824
:10046000006840F47000434908603E48006840F06E
:1004700001003C49086000203A49083108603948C9
:1004800000683D490840374908603C48091D08603C
:10049000081F006820F48020091F086000203149EF
:1004A0000C310860FFF76CFF4FF000603149803974
:1004B000086010BD70B50020002202230024022134
:1004C000284D08352D6805F00C0020B1042806D011
:1004D000082834D107E02A4D2A4E356033E02A4DF2
:1004E000284E35602FE01F4D2D1D2D68C5F380541B
:1004F0001C4D2D1D2D6805F03F0154B1224DB5FB5B
:10050000F1F5184E361D3668C6F3881605FB06F25F
:1005100009E01B4DB5FBF1F5124E361D3668C6F3EA
:10052000881605FB06F20F4D2D1D2D68C5F30145FC
:100530006D1C6B00B2FBF3F5124E356003E0104DFD
:10054000104E356000BF00BF064D08352D68C5F35D
:1005500003150E4E705D0B4D2D68C540094E35607C
:1005600070BD000000380240007000400854400791
:10057000003C024088ED00E0FFFFF6FE1030002452
:100580000024F4000000002000127A000400002083
:1005900006E000F06CFE01F01AF91E2003F0CDFB1E
:1005A000F7E708E001F005FD01F0A7FA01F062FAB3
:1005B0000F2003F0C2FBF5E700F0FFFC01F024FB85
:1005C00001F03AFB01F052FB01F079FB00F030FA48
:1005D000022211467F4802F065F80021052003F051
:1005E00039FA00F02BFA00F063FA0021052003F03D
:1005F00031FA002342F210724FF4FA51052002F052
:100600009DFC42E07448007820B1012812D00228F5
:1006100037D124E0002342F210724FF4FA51052042
:1006200002F08CFC44F6206003F05DFB01206A4977
:10063000087026E04FF48041684803F023FD01284C
:100640000CD10023664A6749052002F077FC4FF47D
:10065000877003F072FB02205F49087011E00520EB
:1006600002F060FD44F6206003F03DFB4FF40051C2
:100670005A4803F007FD012802D1002056490870AE
:1006800000BF00BF142003F058FBBBE730B58BB0B0
:100690000446002500BF05F05BFE01F061FB01F0A0
:1006A00088FC00BF00BF00BF05F08AFF054600BF01
:1006B00000BF4D480078401C4B49087000BF00BF88
:1006C000284605F081FF00BF00BF00BF0AA8072130
:1006D00000220592CDE90621089010464FF40061F2
:1006E000CC22424BCDE90132CDE903100320002397
:1006F000AFF23B123EA1009041480CF06DF90AA800
:10070000072100220592CDE90621089010464FF4FA
:100710000061CC223B4BCDE90132CDE9031005202D
:100720000023AFF2811238A100903A480CF054F93E
:100730000AA8072100220592CDE90621089010465B
:100740004FF40061CC22344BCDE90132CDE90310E6
:1007500006200023AFF2C71230A1009032480CF0FF
:100760003BF90AAB002231A133480BF0D2F800BFAD
:1007700000BF00BF05F024FF054600BF00BF1A48B8
:100780000078401E1849087008460078A0B92B4828
:100790000088002809DD00BF00BF284605F014FFCF
:1007A00000BF00BF08F0B8F90DE000BF00BF284649
:1007B00005F00AFF00BF06E000BF00BF284605F0B5
:1007C00003FF00BF00BF00BF0AA900200CF058FAC9
:1007D0000BB030BD0064004015000020001802403E
:1007E000E0B1FFFF0071020050040020240B002044
:1007F00053656C66436865636B207461736B0000BE
:10080000D8060020242B0020436F75727420746179
:10081000736B00009C070020244B00204C6F6F700E
:10082000207461736B000000600800204C6F6F70D3
:100830005F53454D00000000246B0020140400208D
:1008400000BF401E0028FCD17047000000B58BB0EF
:100850000121022003F052FE0121880603F097FED9
:100860004FF44050099002208DF8280000208DF8A8
:100870002A0003208DF8290001208DF82B0009A9FA
:10088000FE4803F09DFB09220C21FC4803F023FCE9
:1008900009220D21F94803F01EFCF94804F0FEFF7F
:1008A00006A805F01FF900208DF81E008DF81F0026
:1008B0008DF820008DF821008DF8220001208DF8A0
:1008C000230000208DF81A008DF81B0008208DF8F9
:1008D0001C0003208DF81D00ADF8180006A9E8489B
:1008E00004F0F5FF0E208DF8120000208DF81300A3
:1008F00001208DF814000020ADF80800ADF80A00C2
:10090000ADF80C00ADF80E00ADF8100001208DF828
:10091000150002A805F065F801220221D84805F06B
:100920005FFB40208DF8040002208DF805000020B8
:100930008DF8060001208DF8070001A803F04FFA9A
:100940000BB000BD00B58BB00121084603F0D6FD09
:100950000121480603F01BFE4FF4C050099002200D
:100960008DF8280000208DF82A0001208DF82B003A
:1009700009A9C44803F024FB09220B21C14803F054
:10098000AAFB09220C21BF4803F0A5FBBE4804F0D6
:1009900085FF06A805F0A6F800208DF81E008DF84A
:1009A0001F008DF820008DF821008DF82200012015
:1009B0008DF8230000208DF81A008DF81B00082008
:1009C0008DF81C0003208DF81D00ADF8180006A955
:1009D000AD4804F07CFF00208DF812008DF8130064
:1009E00001208DF814000020ADF80800ADF80A00D1
:1009F000ADF80C00ADF80E00ADF8100001208DF838
:100A0000150002A804F0EDFF012202219E4805F026
:100A1000E7FA14208DF8040001208DF805008DF808
:100A200006008DF8070001A803F0D9F90BB000BD4E
:100A300010B5FFF787FFFFF709FF10BD1FB50121B4
:100A4000102003F0A4FD42F2CF00029040F6B73030
:100A5000ADF804000020ADF80C00ADF806008DF8EC
:100A60000E0001A9894804F074F901221146874853
:100A700004F010FE36208DF8000000208DF80100F3
:100A800001208DF802008DF80300684603F0A7F9F5
:100A900001217E4804F012FE01217C4804F0E2F9B5
:100AA00001217A4804F01EFE0020784948621FBDEB
:100AB0001FB50121082003F06AFD42F2CF00029029
:100AC00041F28730ADF804000020ADF80C00ADF81D
:100AD00006008DF80E0001A96D4804F03AF90122D4
:100AE00011466B4804F0D6FD37208DF80000002039
:100AF0008DF8010002208DF8020001208DF803001E
:100B0000684603F06CF90121614804F0D7FD01212A
:100B10005F4804F0A7F901215D4804F0E3FD0020DF
:100B20005B49243108601FBD10B507F079FA594AB6
:100B30000021554805F039F95648006840F28521F2
:100B400088421BD15348C07B534908705148007CF0
:100B500048705048407C88704E48807CC870084679
:100B60000078497800EB01204B49897800EB01407F
:100B70004949C97800EB0160484908604548006868
:100B800040F2822188421BD14248C07B4249087012
:100B90004048007C48703F48407C88703D48807CDD
:100BA000C87008460078497800EB01203A498978F6
:100BB00000EB01403849C97800EB01603849086012
:100BC00034480068352840D33248006835283CD87E
:100BD0003048C07A48B900212E4800683138C0EB4F
:100BE0000010304A1044417108E001212948006892
:100BF0003138C0EB00102B4A104441712548007B6E
:100C000048B90021234800683138C0EB0010254A5C
:100C10001044817108E001211E4800683138C0EBA2
:100C20000010204A1044817100211A4800683138B0
:100C3000C0EB00101B4A10440171012115480068E7
:100C40003138C0EB00101044C1701248006875289C
:100C500034D310480068752830D80E48C07AFF2871
:100C600008D101210B4800687138C0EB00100D4A13
:100C7000104441700748007BFF2815E00004024043
:100C80000068004000000240006400400010004086
:100C9000000C00404C6B00209003002094030020C7
:100CA00098030020B404002008D10121A248006864
:100CB0007138C0EB0010A14A104481709E48006852
:100CC000B0F5907F0AD19C48C07AFF2803D100205C
:100CD0009B49087002E00120994908709648006815
:100CE000802830D19448C07AFF2802D1012095494C
:100CF00008709148C07A30B98F48007BFF2802D134
:100D00000120904948708C48C07A30B98A48007BED
:100D1000DD2802D101208B4988708748407BFF285D
:100D200010D100BFBFF34F8F8748006800F4E06028
:100D300086490843001D84490860BFF34F8F00BFF8
:100D400000BFFEE700BF07F07CF910BD08B507F053
:100D500067F97F4A00217F4805F027F87C48006842
:100D6000112802D0122837D10DE09FED7B0A8DEDBE
:100D7000000A7748D0F80B0000909DED000A6F48FC
:100D800080ED150A29E0002000EE900A00EE100A1E
:100D90006F48D0F80B0000EE900A6D48D0F80F00B5
:100DA00000EE100AB8EEE01ADFED6C1A21EE211AFF
:100DB000DFED6B1A81EE212A604880ED132AB8EE30
:100DC000C01ADFED661A21EE211ADFED651A81EEF9
:100DD000212A80ED142A00E000BF00BF07F031F99E
:100DE00008BD10B507F01CF901215E4804F069FC4C
:100DF000012802D1514981F84C010121594804F0E0
:100E000071FC07F01EF910BD10B507F009F90121BA
:100E1000554804F056FC012823D104201FE0C0EB04
:100E20000011464A1144C978012909D1C0EB0011CB
:100E300011440979491CC0EB0012404B1A4411714E
:100E4000C0EB00113D4A11440979032905DB00215B
:100E5000C0EB0012394B1A44D170411CC8B20528AE
:100E6000DDDB0121404804F03DFC07F0EAF810BD4D
:100E70002DE9F04106460F4615460024A0463B48A2
:100E8000066000203949087248720846857200BF22
:100E900005E0395D35480B300155601C84B2AC4229
:100EA000F7DB3249324804F08BFE8046002401E033
:100EB000601C84B241462E4804F01AFF18B940F66F
:100EC000FF708442F4DB40F6FF70844202DB0120B5
:100ED000BDE8F0810020FBE72DE9F04105460F4613
:100EE00016460024A04623480560002021490872C8
:100EF000487208468672324639460B300EF0B4FD11
:100F00001C49144804F05CFE804600BF01E0601CF0
:100F100084B241460F4804F0EBFE18B940F6FF706A
:100F20008442F4DB40F6FF70844202DB0120BDE81E
:100F3000F0810020FBE700004C6B0020B40400208F
:100F40009C0300209D0300200CED00E00000FA054A
:100F5000606B002000680040000000005C471F43F9
:100F60000000FA4400100040000C0040746B0020A8
:100F700000640040886B002080ED000AC0ED010A8B
:100F800080ED021AC0ED031A9FEDFE4A80ED044A7F
:100F90009FEDFC4A80ED054A9FEDFA4A80ED064A36
:100FA00080ED073AC0ED083A9FEDF64A80ED0F4A12
:100FB00080ED092AC0ED0A2A704700B50120F249E8
:100FC00081F84C019FEDEF0A084680ED160A9FED6F
:100FD000ED0A80ED170A9FEDEB0A80ED180A9FEDF0
:100FE000E90A80ED130A9FEDE70A80ED140A9FEDF0
:100FF000E50A80ED150AC830086740304867403080
:101000008867F9EE043AB1EE043ADFEDE02A9FED8D
:10101000E02ADFEDDC1A9FEDDB1AF0EE080AB0EEF5
:10102000000ABC38FFF7A8FFF9EE043AB1EE043A23
:10103000DFEDD62A9FEDD62ADFEDD21A9FEDD11A29
:10104000F0EE080AB0EE000ACF48CC30FFF794FF6C
:10105000F9EE043AB1EE043ADFEDCE2A9FEDCE2A46
:10106000DFEDC81A9FEDC71AF1EE080AB6EE000AC6
:10107000CA48FFF781FF00BD1CB500200090019019
:101080000424C4EB0411C04A11444870C4EB041199
:1010900011448870C4EB04111144C870C4EB0411EE
:1010A0001144087135E0042427E0C4EB0410B6496C
:1010B0000844807801281ED0C4EB0410084440780E
:1010C000012808D0FF208DF8000004F201700822EA
:1010D0006946FFF7CDFEC4EB0410AB4908444078E5
:1010E000012808D1FF208DF8010004F201700822C8
:1010F0006946FFF7BDFE601CC4B2052CD5DB4DF67A
:10110000BF20FFF79DFBA04890F83E00012800D1CA
:1011100000E0C8E700BF1CBD70EEC11AC0ED041AA4
:10112000D0ED061A90ED042A71EE821AC0ED061A6F
:10113000D0ED061A90ED072AF4EEC21AF1EE10FA7D
:1011400002DDD0ED071A0DE0D0ED061A90ED082A69
:10115000F4EEC21AF1EE10FA02D2D0ED081A01E054
:10116000D0ED061AC0ED061AD0ED041AC0ED051A2E
:10117000D0ED011A90ED042A61EE821AC0ED0B1A2F
:10118000D0ED021A90ED062A61EE821AC0ED0C1A1B
:10119000D0ED041A90ED052A71EEC21A90ED032AE3
:1011A00061EE821AC0ED0D1AD0ED001A30EE602A01
:1011B00061EE821AC0ED0E1AD0ED0B1A90ED0C2ADA
:1011C00071EE821A90ED0D2A71EE821AC0ED0F1A9F
:1011D000D0ED0F1A90ED092AF4EEC21AF1EE10FAD2
:1011E00002DDD0ED091A0DE0D0ED0F1A90ED0A2ABC
:1011F000F4EEC21AF1EE10FA02D2D0ED0A1A01E0B2
:10120000D0ED0F1AC0ED0F1A704700B55E48D0ED53
:10121000131AB0EE611AD0ED161AF0EE610AD0ED95
:10122000191AB0EE610A8C30FFF776FF5648D0ED00
:10123000141AB0EE611AD0ED171AF0EE610AD0ED73
:101240001A1AB0EE610ACC30FFF766FF4E48D0EDB7
:10125000151AB0EE611AD0ED181AF0EE610AD0ED51
:101260001B1AB0EE610A4D48FFF756FF00BD10B5DE
:101270002DED108B444890ED520A10EE101A0846DE
:101280000FF08AFF41EC190B3F4890ED420A10EE37
:10129000101A08460FF080FF41EC1D0B3A4890ED04
:1012A000150ADFED3F0A20EE200ADFED3E0A80EE50
:1012B000201A9FED3D0A31EE000A10EE104A20463A
:1012C0000FF06AFF41EC1F0BB0EE4F0AF0EE6F0A11
:1012D0000EF0F6FCB0EE40EAF0EE60EA53EC1D2BA7
:1012E00051EC1E0B0FF098FC41EC1B0B264890EDC7
:1012F000320A10EE101A08460FF04EFF41EC1D0B9B
:10130000214890ED150ADFED260A20EE200A9FED18
:10131000251AC0EE010A9FED250A30EE800A10EE74
:10132000104A20460FF038FF41EC1F0BB0EE4F0A79
:10133000F0EE6F0A0EF0C4FCB0EE40EAF0EE60EAA8
:1013400053EC1D2B51EC1E0B0FF066FC41EC1C0BFB
:1013500053EC1B2B0FF0BEF941EC1A0B53EC192B7D
:101360000FF0B8F941EC180B0FF082F90649C86785
:10137000084690ED520A10EE101A08460FF00CFFC6
:1013800016E0000000000000B404002018F131C68F
:1013900018F131460000FAC40000FA44C0050020EC
:1013A000DB0F494000003443DB0F493FE4CB1640DC
:1013B00041EC190BFE4890ED420A10EE101A084657
:1013C0000FF0EAFE41EC1D0BF94890ED150A5FEDB8
:1013D0000C0A20EE200A1FED0D1AC0EE010A1FEDC7
:1013E0000D0A30EE800A10EE104A20460FF0D4FEAF
:1013F00041EC1F0BB0EE4F0AF0EE6F0A0EF060FCEE
:10140000B0EE40EAF0EE60EA53EC1D2B51EC1E0BFF
:101410000FF002FC41EC1B0BE54890ED320A10EE98
:10142000101A08460FF0B8FE41EC1D0BE04890ED95
:10143000150A5FED250A20EE200A1FED261AC0EEE0
:10144000010A9FEDDC0A30EE800A10EE104A2046B9
:101450000FF0A2FE41EC1F0BB0EE4F0AF0EE6F0A48
:101460000EF02EFCB0EE40EAF0EE60EA53EC1D2BDD
:1014700051EC1E0B0FF0D0FB41EC1C0B53EC1B2B63
:101480000FF028F941EC1A0B53EC192B0FF022F94D
:1014900041EC180B0FF0ECF8C549C1F88000084684
:1014A00090ED520A10EE101A08460FF075FE41EC4E
:1014B000190BBF4890ED420A10EE101A08460FF0C3
:1014C0006BFE41EC1D0BBA4890ED150A5FED4C0A1E
:1014D00060EE200A1FED4D1A80EE810ADFEDB50A9D
:1014E00030EE200A10EE104A20460FF055FE41EC77
:1014F0001F0BB0EE4F0AF0EE6F0A0EF0E1FBB0EEFC
:1015000040EAF0EE60EA53EC1D2B51EC1E0B0FF09D
:1015100083FB41EC1B0BA64890ED320A10EE101A2B
:1015200008460FF039FE41EC1D0BA14890ED150A5D
:101530005FED650A60EE200A1FED661A80EE810AF3
:10154000DFED9D0A30EE200A10EE104A20460FF023
:1015500023FE41EC1F0BB0EE4F0AF0EE6F0A0EF0C7
:10156000AFFBB0EE40EAF0EE60EA53EC1D2B51EC1D
:101570001E0B0FF051FB41EC1C0B53EC1B2B0FF01F
:10158000A9F841EC1A0B53EC192B0FF0A3F841EC1E
:10159000180B0FF06DF88649C1F88400084690EDED
:1015A000520A10EE101A08460FF0F6FD41EC190B26
:1015B0007F4890ED420A10EE101A08460FF0ECFD3D
:1015C00041EC1D0B7A4890ED150A5FED8B0A60EE39
:1015D000200A1FED8C1A80EE810ADFED770A30EECB
:1015E000200A10EE104A20460FF0D6FD41EC1F0BEA
:1015F000B0EE4F0AF0EE6F0A0EF062FBB0EE40EA7A
:10160000F0EE60EA53EC1D2B51EC1E0B0FF004FBC7
:1016100041EC1B0B664890ED320A10EE101A08469A
:101620000FF0BAFD41EC1D0B614890ED150A5FED1E
:10163000A40A60EE200A1FEDA51A80EE810A5FED74
:10164000A60A30EE200A10EE104A20460FF0A4FD44
:1016500041EC1F0BB0EE4F0AF0EE6F0A0EF030FBBC
:10166000B0EE40EAF0EE60EA53EC1D2B51EC1E0B9D
:101670000FF0D2FA41EC1C0B53EC1B2B0FF02AF8A5
:1016800041EC1A0B53EC192B0FF024F841EC180B1A
:101690000EF0EEFF4649C1F88800084690ED1F0A9B
:1016A000DFED460A80EE201A80ED1F1A90ED200A29
:1016B000DFED420A80EE201A80ED201A90ED210A1B
:1016C000DFED3E0A80EE201A80ED211A90ED220A0D
:1016D000DFED3A0A80EE201A80ED221A90ED1F0A03
:1016E00010EE101A08460FF057FD41EC190B9FED54
:1016F000340B53EC102B0FF08FFA41EC180B0FF05A
:10170000F5F900EE100AB8EEC00A294880ED1F0A6C
:1017100090ED200A10EE101A08460FF03DFD41EC46
:10172000190B9FED270B53EC102B0FF075FA41ECC2
:10173000180B0FF0DBF900EE100AB8EEC00A1C48D7
:1017400080ED200A90ED210A10EE101A08460FF0E5
:1017500023FD41EC190B9FED1A0B53EC102B0FF0EE
:101760005BFA41EC180B0FF0C1F900EE100AB8EE6D
:10177000C00A0F4880ED210A90ED220A10EE101ADF
:1017800008460FF009FD41EC190B9FED0D0B53ECD2
:10179000102B0FF041FA41EC180B0FF0A7F900EEF7
:1017A000100AB8EEC00A024880ED220A0CE00000E0
:1017B000B4040020E4CB16C0DB0F49BFF6C3E343FB
:1017C0000000000000D5EB40BDEC108B10BD10B543
:1017D0002DED048B574890ED1F0A10EE101A0846A5
:1017E0000FF0DAFC41EC190BB0EE490AF0EE690A91
:1017F0000EF0CAFAB0EE408AF0EE608A9FED4E0B12
:1018000053EC102B51EC180B0FF0CAF902D29FEDDC
:101810004C0A02E0474890ED1F0ABDEEC00A10EEE8
:10182000104A2146012001F0BDFA424890ED200AFD
:1018300010EE101A08460FF0AFFC41EC190BB0EE99
:10184000490AF0EE690A0EF09FFAB0EE408AF0EE17
:10185000608A9FED390B53EC102B51EC180B0FF0F5
:101860009FF902D29FED360A02E0324890ED200A3D
:10187000BDEEC00A10EE104A2146022001F092FA95
:101880002C4890ED210A10EE101A08460FF084FC47
:1018900041EC190BB0EE490AF0EE690A0EF074FA49
:1018A000B0EE408AF0EE608A9FED230B53EC102BD4
:1018B00051EC180B0FF074F902D29FED210A02E0EF
:1018C0001C4890ED210ABDEEC00A10EE104A2146D8
:1018D000032001F067FA174890ED220A10EE101A63
:1018E00008460FF059FC41EC190BB0EE490AF0EE36
:1018F000690A0EF049FAB0EE408AF0EE608A9FED78
:101900000E0B53EC102B51EC180B0FF049F902D2CF
:101910009FED0B0A02E0074890ED220ABDEEC00AD7
:1019200010EE104A2146042001F03CFABDEC048B75
:1019300010BD0000B4040020000000000000694059
:101940000000000070B52DED0C8B0446F0EE408ACF
:1019500014B9A448007801E0A24840780546012D5A
:1019600004D0022D34D0032D4CD148E09FED9E0BC6
:101970000EF014FAB0EE40DAF0EE60DA9FED9C0B58
:1019800053EC102B51EC1D0B0EF058FF41EC1C0BCF
:101990000EF06EFE06460FF0FFFB41EC1B0BB0EEA7
:1019A0004B0AF0EE6B0A0EF0F9F9B0EE40AAF0EE39
:1019B00060AA9FED8F0B53EC102B51EC1A0B0EF01D
:1019C0003DFF41EC190B0EF053FE08EE100A4BE000
:1019D0009FED850B0EF0E2F9B0EE40AAF0EE60AAA2
:1019E0009FED830B53EC102B51EC1A0B0EF026FFDE
:1019F00041EC190B0EF03CFE08EE100A34E0B3EE99
:101A0000048A31E09FED780B0EF0C8F9B0EE40DAB1
:101A1000F0EE60DA9FED760B53EC102B51EC1D0BC2
:101A20000EF00CFF41EC1C0B0EF022FE06460FF0F0
:101A3000B3FB41EC1B0BB0EE4B0AF0EE6B0A0EF061
:101A4000ADF9B0EE40AAF0EE60AA9FED690B53EC41
:101A5000102B51EC1A0B0EF0F1FE41EC190B0EF0AD
:101A600007FE08EE100A00BF00BF28EE880ABDEC92
:101A70000C8B70BD10B52DED028B5F48D0ED040AC4
:101A8000B0EE600A0120FFF75DFFB0EE408A5A48D1
:101A9000D0ED050AB0EE600A0020FFF753FFF0EE2C
:101AA000408A564890ED180A5348D0ED020A9FED3F
:101AB000541A01EE200A514880ED180A03465833A3
:101AC0000ECB64300EC0FFF7A0FB4C48006F80EDDA
:101AD000008A4A48406FC0ED008ABDEEC80AB8EEE1
:101AE000C00A464880ED320ABDEEE80AB8EEC00AE8
:101AF00080ED420ABDEC028B10BD3F48407800F0FB
:101B0000100070B93F48007800F010003A49497859
:101B100001F01001884204D032480078401C31495D
:101B200008703548407800F0400070B935480078BA
:101B300000F040003049497801F04001884204D06B
:101B400028480078401E274908702B48407800F04C
:101B5000200070B92B48007800F020002649497811
:101B600001F02001884204D01E484078401C1D49E5
:101B700048702148407800F0800070B92148007812
:101B800000F080001C49497801F08001884204D0AF
:101B900014484078401E13494870124800780328C2
:101BA00001DD032007E00F480078012801DA012059
:101BB00001E00C4800780B4908700846407803287B
:101BC00001DD032007E007484078012801DA012001
:101BD00001E00448407803494870074840780949C3
:101BE00008707047A00300200000000000409F40E4
:101BF00000000000000059409C6B0020B40400204D
:101C0000CDCC4C3EA20300201CB50121080202F0FD
:101C100075FCE020009001208DF804008DF807008D
:101C200003208DF805006946474802F0C9F9E02114
:101C3000454802F041FA1CBD1CB50121080202F022
:101C40005DFC4FF48070009001208DF804008DF849
:101C5000070003208DF8050069463B4802F0B0F903
:101C60004FF48071384802F029FA1CBD1CB50121DF
:101C7000402002F043FC0121042002F03FFC4FF41D
:101C8000F040009000208DF8040003208DF805003E
:101C900002208DF8070069462C4802F091F90220D5
:101CA000009000208DF8040003208DF8050002202C
:101CB0008DF807006946264802F082F91CBD1CB564
:101CC0000121802002F01AFC4FF470700090012076
:101CD0008DF8040003208DF8050001208DF8070021
:101CE00069461C4802F06CF94FF47071194802F013
:101CF000E3F94021174802F0E1F91CBD70B5054633
:101D00000C46012D02D0022D1AD10CE0002607E06E
:101D10001148FEF795FD1048FEF792FD701CC6B203
:101D2000A642F5DB0DE0002607E00C48FEF788FD33
:101D30000A48FEF785FD701CC6B2A642F5DB00E03E
:101D400000BF00BF70BD000000200240001802402C
:101D500000080240001C0240FF3EAB017F2C8000C7
:101D60001CB50121022002F0C9FB0121082002F06C
:101D7000C5FB4020009000208DF8040002208DF863
:101D8000070003208DF805006946CD4802F018F9D8
:101D90002020009001208DF8040000208DF806001E
:101DA00001208DF807006946C54802F009F9802036
:101DB00000906946C34802F003F94020009069464C
:101DC000C04802F0FDF88021BE4802F075F92021DC
:101DD000BB4802F073F94021BA4802F06DF90020C7
:101DE000B94908704870887048718871C870087166
:101DF0001CBDB548007873287FD1B348407980383E
:101E0000002803DDB0484079803803E0AE484079CF
:101E1000C0F18000022805DA9FEDAC0AAA4880EDE7
:101E2000040A09E0A8484079803800EE100AB8EEAC
:101E3000C00AA54880ED040AA348807980380028AC
:101E400003DDA1488079803803E09F488079C0F1A4
:101E50008000022805DA9FED9D0A9B4880ED050A67
:101E60000AE099488079C0F1800000EE100AB8EECF
:101E7000C00A954880ED050A9348C078803800284C
:101E800003DD9148C078803803E08F48C078C0F106
:101E90008000022805DA9FED8D0A8B4880ED020A4A
:101EA00009E08948C078803800EE100AB8EEC00A10
:101EB000854880ED020A844800798038002803DDD7
:101EC00081480079803803E07F480079C0F18000C4
:101ED000022806DA9FED7D0A7B4880ED030A1DE0AB
:101EE0000BE079480079C0F1800000EE100AB8EEEE
:101EF000C00A754880ED030A10E09FED740A72482D
:101F000080ED040A9FED710A80ED050A9FED6F0ACE
:101F100080ED020A9FED6D0A80ED030A704738B527
:101F200004460025684606F035F906E01E2500BF88
:101F3000281EA5F101018DB2FAD1201EA4F10104E1
:101F4000F4D1684606F070F938BD70B50446002635
:101F500080215C4802F0B0F8002523E004F0010085
:101F600020B12021564802F0A7F803E02021544870
:101F700002F0A4F864100A20FFF7D1FF8021514835
:101F800002F09CF80A20FFF7CAFF40214C4802F0FB
:101F900079F8A8403043C6B280214A4802F08CF854
:101FA000681CC5B2082DD9DB0A20FFF7B8FF304600
:101FB00070BD70B50024002500BF00BF00BF04F055
:101FC000FFFA054600BF00BF41480078401C404969
:101FD000087000BF00BF284604F0F6FA00BF00BF3B
:101FE00000BF4021374802F069F80A20FFF797FF49
:101FF0000120FFF7AAFF4220FFF7A7FF3249087030
:102000000020FFF7A2FF04465A2C01D0002070BD2B
:102010000020FFF79AFF2C4948700020FFF795FF3A
:10202000294988700020FFF790FF2749C8700020D9
:10203000FFF78BFF244908710020FFF786FF224934
:1020400048710020FFF781FF1F4988710A20FFF7C0
:1020500066FF40211B4802F02FF8FFF7CAFE00BFC1
:1020600000BF00BF04F0ACFA054600BF00BF18482F
:102070000078401E1649087008460078A0B9154837
:102080000088002809DD00BF00BF284604F09CFA44
:1020900000BF00BF06F040FD0DE000BF00BF2846B6
:1020A00004F092FA00BF06E000BF00BF284604F02B
:1020B0008BFA00BF00BF00BF03480078A7E700000D
:1020C000000C0240000402409C6B00200000000055
:1020D000500400201404002030B502461378062B6B
:1020E0001CD2DFE803F003070B0F1317FD4BFE4C68
:1020F000236013E0FD4BFC4C23600FE0FC4BFA4CDB
:1021000023600BE0FB4BF84C236007E0FA4BF64CE6
:10211000236003E0F94BF44C236000BF00BFF24B97
:102120001B685B885B1C98B2962800DB0020EE4B96
:102130001B685B88834200D130BD40F22914EA4B12
:102140001B685B8803EB4305E74B1B681B1D23F8EB
:1021500025400124E44B1B685B8803EB4305E24BFD
:102160001B681B1D03EB85039C70DF4B1B685B88A2
:1021700003EB4304DC4B1B681B1D03EB8403D9708A
:10218000D94B1B685B885B1CD74C24686380D64B9B
:102190001B685B88962B03DB0023D34C2468638089
:1021A00000BFC9E7F0B51546059C0678062E1CD27F
:1021B000DFE806F003070B0F1317CA4ECA4F3E6045
:1021C00013E0CA4EC84F3E600FE0C94EC64F3E6096
:1021D0000BE0C84EC44F3E6007E0C74EC24F3E60A2
:1021E00003E0C64EC04F3E6000BF00BFBE4E366823
:1021F0007688761CB2B2962A00DB0022BA4E366888
:102200003688964200D1F0BD067806F54076B64F86
:102210003F687F8807EB470CB34F3F683F1D27F8A7
:102220002C600827B04E3668768806EB460CAE4E1A
:102230003668361D06EB8C06B77011F8017BAA4E86
:102240003668768806EB460CA74E3668361D06EBD8
:102250008C06F7700F78A44E3668768806EB460C2D
:10226000A14E3668361D06EB8C0637719E4E3668D9
:10227000768806EB46079C4E3668361D06EB8706C9
:102280007571DE07370E984E3668768806EB460C79
:10229000954E3668361D06EB8C06B771924E366841
:1022A000768806EB460C904E3668361D06EB8C069B
:1022B000F471270A8C4E3668768806EB460C8A4EF7
:1022C0003668361D06EB8C063772270C864E36684C
:1022D000768806EB460C844E3668361D06EB8C0677
:1022E0007772270E804E3668768806EB460C7E4E57
:1022F0003668361D06EB8C06B7727B4E36687688DC
:10230000761C794F3F687E80774E36687688962EA9
:1023100003DB0026744F3F687E8000BF73E730B553
:102320000A460378062B1CD2DFE803F003070B0FE5
:1023300013176C4B6C4C236013E06C4B6A4C23609E
:102340000FE06B4B684C23600BE06A4B664C2360DC
:1023500007E0694B644C236003E0684B624C2360E8
:1023600000BF00BF604B1B685B885B1C99B296295D
:1023700000DB00215C4B1B681B888B4200D130BD09
:102380000024594B1B685B8803EB4305564B1B68C5
:102390001B1D23F825400224534B1B685B8803EB6D
:1023A0004305514B1B681B1D03EB85039C704E4B73
:1023B0001B685B8803EB43044B4B1B681B1D03EB43
:1023C0008403DA700478484B1B685B8803EB430591
:1023D000454B1B681B1D03EB85031C71424B1B689F
:1023E0005B885B1C404C246863803F4B1B685B88A8
:1023F000962B03DB00233C4C2468638000BFBEE7C0
:10240000F0B514460578062D1CD2DFE805F0030769
:102410000B0F1317334D344E356013E0334D324EEE
:1024200035600FE0324D304E35600BE0314D2E4EB1
:10243000356007E0304D2C4E356003E02F4D2A4EBD
:10244000356000BF00BF284D2D686D886D1CAAB295
:10245000962A00DB0022244D2D682D88954200D15C
:10246000F0BD057805F5C0651F4E3668768806EB29
:1024700046071D4E3668361D26F8275008261A4D89
:102480002D686D8805EB4507174D2D682D1D05EB53
:102490008705AE702226144D2D686D8805EB450723
:1024A000114D2D682D1D05EB8705EE700E4D2D6825
:1024B0006D8805EB45070C4D2D682D1D05EB870537
:1024C00029710E0A084D2D686D8805EB4507064DEC
:1024D0002D682D1D05EB87056E71034D2D686D88E8
:1024E0000EE00000B46B0020A4030020C0720020A6
:1024F000CC790020D8800020E4870020F08E0020D6
:1025000005EB4506FE4D2D682D1D05EB8605AC71CE
:10251000FB4D2D686D8805EB4507F94D2D682D1D88
:1025200005EB8705EB711E0AF54D2D686D8805EBEF
:102530004507F34D2D682D1D05EB87052E721E0CEA
:10254000EF4D2D686D8805EB4507ED4D2D682D1D70
:1025500005EB87056E721E0EE94D2D686D8805EB43
:102560004507E74D2D682D1D05EB8705AE72E44D3F
:102570002D686D886D1CE24E36687580E04D2D68C3
:102580006D88962D03DB0025DD4E3668758000BF13
:1025900066E710B5002107E04AF26C2200BF131E67
:1025A000A2F10102FBD1491C8142F5D310BD10B547
:1025B00043F6FF7400BF00BF601E041EFBD1D1486C
:1025C000007801280BD100220121CF4803F062F8E6
:1025D0000021CD4802F046FC4FF0004010BD4FF402
:1025E000FA70FFF7D6FF02E0C8480068F6E7C74870
:1025F000007800F01F001F28F6D10020EEE7002031
:10260000C34900220A604A608A60C2490A800021E8
:1026100001804180704710B5BF48FFF7F0FFBF4809
:10262000FFF7EDFFBE48FFF7EAFFBE48FFF7E7FF01
:10263000BD48FFF7E4FFBD48FFF7E1FF10BD7FB5E0
:1026400005460C460121202001F0A1FF32208DF823
:1026500000008DF801508DF8024001208DF8030034
:10266000684601F0BCFB4FF4527002900920ADF8AF
:1026700004000020ADF80C00ADF806008DF80E0047
:1026800001A9A14802F065FB012211469E4803F012
:1026900001F801219C4803F011F801219A4802F049
:1026A000E1FB7FBD2DE9F84380460D461646002428
:1026B000002731462846FFF7C2FFFFF7ACFF00BFF7
:1026C00004E0934800F81440601CC4B2052CF8DD07
:1026D00040209049087001240DE08D4901EB440031
:1026E0008221FFF71CFE8A4901EB44003221FFF7EB
:1026F000F3FC601CC4B2052CEFDDFFF758FF074662
:10270000B0F1004F02D13846BDE8F88300231A46E5
:102710004FF4D0517E48FFF773FE96217C48FFF7B7
:10272000DBFC00231A4641F601217948FFF768FED9
:1027300096217748FFF7D0FC28217548FFF7CCFC9D
:1027400001217348FFF7EBFD28217148FFF7C4FC16
:1027500000200346024676A100906D48FFF722FD57
:1027600050216B48FFF7B8FC012000231A4671A1E5
:1027700000906748FFF716FD28216548FFF7ACFC7D
:102780006D4800231A466DA100906148FFF70AFDCD
:1027900028215F48FFF7A0FC674800231A4668A17C
:1027A00000905B48FFF7FEFC28215948FFF794FC96
:1027B000022000231A4663A100905548FFF7F2FC5F
:1027C00028215348FFF788FC022052494870002412
:1027D00006E002204E4901EB44014870601CC4B27F
:1027E000052CF6DD012000231A4651A1009048482F
:1027F000FFF7D8FCFA214648FFF76EFCFA2144485F
:10280000FFF76AFC32214248FFF766FC38467BE757
:1028100038B504463E4901EB44008023002246F2CD
:102820004001FFF7EDFD3A4901EB44001421FFF7A9
:1028300053FC374901EB44000223002242F6417168
:10284000FFF7DEFD324901EB44001421FFF744FCA1
:102850002F4901EB44008221FFF761FD2C4901EB78
:1028600044001E21FFF738FC294901EB44000121F7
:10287000FFF755FD264901EB44001E21FFF72CFC14
:10288000012000231A462BA100902148FFF78AFC63
:102890001F4901EB44001421FFF71EFC26480023CA
:1028A0001A4626A100901A48FFF77CFC184901EB54
:1028B00044002821FFF710FC1F4800231A4620A1DE
:1028C00000901348FFF76EFC114901EB44002821EA
:1028D000FFF702FC00200E49009001EB44000023AA
:1028E0001A4613A1FFF75EFC094901EB44001E21C3
:1028F000FFF7F2FB01200649009001EB440023E0C2
:10290000A4030020B003002000140040B403002002
:10291000FC950020A8030020B46B0020C0720020AA
:10292000CC790020D8800020E4870020F08E0020A1
:102930004D4F0000504D000000CA9A3B414300003B
:1029400044430000554D000000231A46AFF2200119
:10295000FFF728FCFE4901EB44003C21FFF7BCFBDC
:1029600038BD2DED020B6946086802B0704770B59E
:102970002DED028B82B00446B0EE408A0025002C7B
:102980004CD1F34800EB44004078012846D0F04891
:1029900000EB4400407880B10020ED49009001EB4D
:1029A000440000231A46AFF27801FFF7FBFBE84929
:1029B00001EB44006421FFF78FFB0120E5494870DB
:1029C000002506E00120E24901EB45014870681C42
:1029D000C5B2052DF6DD0120DD49009001EB440074
:1029E00000231A46AFF2A401FFF7DCFBD84901EB44
:1029F00044000A21FFF770FB0120D549009001EB4C
:102A0000440000231A46AFF2D801FFF7CBFBD049B0
:102A100001EB44001E21FFF75FFB5BE0CC4800EBBD
:102A200044004078012855D0C94800EB4400407864
:102A300080B10020C649009001EB440000231A46F3
:102A4000AFF21411FFF7AEFBC14901EB4400642162
:102A5000FFF742FB0120BE4901EB44014870BC492D
:102A6000009001EB440000231A46AFF22811FFF753
:102A700099FBB74901EB44000A21FFF72DFB012028
:102A8000B349009001EB440000231A46AFF26011F5
:102A9000FFF788FBAE4901EB44001E21FFF71CFB4A
:102AA000012514E0AA4800EB45004178A84A681CBB
:102AB00002EB40004078814203D10120114648706A
:102AC00003E00620A249487003E0681CC5B2052D4A
:102AD000E8DB00BFB0EE480AFFF743FF06469C491B
:102AE000009001EB4400012300229BA1FFF75AFB59
:102AF000974901EB44000A21FFF7EEFA002002B0EB
:102B0000BDEC028B70BD38B504460025002C4CD1BD
:102B10008F4800EB44004078022846D08C4800EBF8
:102B20004400407880B100208949009001EB4400C6
:102B300000231A46AFF20821FFF734FB844901EB6A
:102B400044006421FFF7C8FA02208249487000253A
:102B500006E002207E4901EB45014870681CC5B2C1
:102B6000052DF6DD02207A49009001EB4400002398
:102B70001A46AFF23021FFF715FB754901EB44000F
:102B80000A21FFF7A9FA01207149009001EB4400E6
:102B900000231A46AFF26821FFF704FB6C4901EBF2
:102BA00044001E21FFF798FA5BE0694800EB4400FF
:102BB0004078022855D0664800EB4400407880B148
:102BC00000206349009001EB440000231A46AFF255
:102BD000A021FFF7E7FA5E4901EB44006421FFF70B
:102BE0007BFA02205A4901EB440148705849009091
:102BF00001EB440000231A46AFF2B821FFF7D2FAE6
:102C0000534901EB44000A21FFF766FA01205049BD
:102C1000009001EB440000231A46AFF2EC21FFF7CD
:102C2000C1FA4B4901EB44001E21FFF755FA01257B
:102C300014E0474800EB45004178454A681C02EB28
:102C400040004078814203D102201146487003E0E1
:102C500006203F49487003E0681CC5B2052DE8DB3B
:102C600000BF38BD30B50378062B1CD2DFE803F077
:102C700003070B0F1317394B394C236013E0394B03
:102C8000374C23600FE0384B354C23600BE0374B5B
:102C9000334C236007E0364B314C236003E0354B67
:102CA0002F4C236000BF00BF2D4B1B685B885B1C53
:102CB0009AB2962A00DB0022294B1B681B8893429C
:102CC00000D130BD037803F54073254C2468648837
:102CD00004EB4405224C2468241D24F825300424E8
:102CE0001F4B1B685B8803EB43051D4B1B681B1DBB
:102CF00003EB85039C7011F8014B194B1B685B8833
:102D000003EB4305164B1B681B1D03EB8503DC70AF
:102D10000C78134B1B685B8803EB4305104B1B6857
:102D20001B1D03EB85031C7100240D4B1B685B8886
:102D300003EB43050A4B1B681B1D03EB85035C710A
:102D4000074B1B685B8803EB4305054B1B6813E0CF
:102D5000FC950020A803002054430000B46B002021
:102D6000A4030020C0720020CC790020D88000206D
:102D7000E4870020F08E00201B1D03EB85039C716F
:102D8000FA4B1B685B885B1CF84C24686380F74B2C
:102D90001B685B88962B03DB0023F44C246863805C
:102DA00000BF8EE7F8B504460E460025002C4CD136
:102DB000EF4800EB44004078022846D0EC4800EB96
:102DC0004400407880B10020E949009001EB4400C4
:102DD00000231A46AFF2A841FFF7E4F9E44901EBFA
:102DE00044006421FFF778F90220E2494870002589
:102DF00006E00220DE4901EB45014870681CC5B2BF
:102E0000052DF6DD0220DA49009001EB4400002395
:102E10001A46AFF2D041FFF7C5F9D54901EB44009E
:102E20000A21FFF759F90120D149009001EB440034
:102E300000231A46AFF20851FFF7B4F9CC4901EB71
:102E400044001E21FFF748F95BE0C94800EB44004D
:102E50004078022855D0C64800EB4400407880B145
:102E60000020C349009001EB440000231A46AFF252
:102E70004051FFF797F9BE4901EB44006421FFF789
:102E80002BF90220BA4901EB44014870B84900907F
:102E900001EB440000231A46AFF25851FFF782F9C4
:102EA000B34901EB44000A21FFF716F90120B049AC
:102EB000009001EB440000231A46AFF28C51FFF75B
:102EC00071F9AB4901EB44001E21FFF705F900251C
:102ED00014E0A74800EB45004178A54A681C02EBC6
:102EE00040004078814203D102201146487003E03F
:102EF00006209F49487003E0681CC5B2052DE8DB39
:102F000000BF9B4901EB440000231A469AA100969A
:102F1000FFF748F9964901EB44000A21FFF7DCF876
:102F2000934901EB440095A1FFF79CFE904901EB0A
:102F300044000A21FFF7D0F80020F8BD2DE9F8433E
:102F400004460F46164698460025002C4CD188486A
:102F500000EB44004078052846D0854800EB44004B
:102F6000407880B100208249009001EB44000023AA
:102F70001A46AFF24461FFF715F97D4901EB4400B1
:102F80005A21FFF7A9F805207A494870002506E084
:102F90000520774901EB45014870681CC5B2052D35
:102FA000F6DD05207249009001EB440000231A462B
:102FB000AFF27061FFF7F6F86D4901EB44001421A0
:102FC000FFF78AF801206A49009001EB44000023D2
:102FD0001A46AFF2A461FFF7E5F8654901EB44003A
:102FE0001E21FFF779F85DE0614800EB440040786E
:102FF000052857D05E4800EB4400407880B100209F
:103000005B49009001EB440000231A46AFF2E061F7
:10301000FFF7C8F8564901EB44005A21FFF75CF866
:103020000521601E524A02EB400041700520114606
:10303000009001EB440000231A46AFF2F861FFF75D
:10304000B1F84B4901EB4400C821FFF745F80120D6
:103050004749009001EB440000231A46AFF230715B
:10306000FFF7A0F8424901EB44001E21FFF734F8B6
:10307000012514E03E4800EB450041783C4A681CBD
:1030800002EB40004078814203D105201146487090
:1030900003E006203649487003E0681CC5B2052DE0
:1030A000E8DB00BF324901EB440000231A4634A19B
:1030B0000097FFF777F82E4901EB44001421FFF742
:1030C0000BF8B8F1000F0FD0294901EB44000023A1
:1030D0001A462CA10096FFF765F8254901EB44003C
:1030E0001421FEF7F9FF0EE0214901EB4400002313
:1030F0001A4625A10096FFF755F81D4901EB44003B
:103100001421FEF7E9FF1A4901EB44001BA1FFF768
:10311000A9FD174901EB44001421FEF7DDFF002053
:10312000BDE8F88338B5044600257CBB0020104973
:10313000009001EB440000231A46AFF60C01FFF7A4
:1031400031F80B4901EB44006421FEF7C5FF002074
:103150000849487000BF06E00020054901EB450121
:103160004870681CC5B2052DF6DD40E0A4030020C0
:10317000FC950020A80300204A56000042470000AA
:10318000535000005041000050520000FFE7002063
:10319000FD49009001EB440000231A46AFF6700190
:1031A000FFF700F8F84901EB44006421FEF794FFB3
:1031B0000020F54901EB44014870012514E0F24874
:1031C00000EB45004178F04A681C02EB4000407873
:1031D000814203D100201146487003E00620EA49ED
:1031E000487003E0681CC5B2052DE8DB00BF002075
:1031F00038BD38B504460025002C7CD1E24800EBF0
:10320000440040780628F8D10125C9E0DE4800EBEB
:103210004500407888B90120DB49009001EB45006A
:1032200000231A46AFF6F801FEF7BCFFD64901EBC2
:1032300044001E21FEF750FFA4E0D34800EB4500F8
:1032400040780128F8D10020CF49009001EB4500DB
:1032500000231A46AFF62811FEF7A4FFCA4901EB76
:103260004500C821FEF738FFC74901EB4500C821DA
:10327000FEF732FFC44901EB4500C821FEF72CFFE1
:10328000C14901EB4500C821FEF726FFBE4901EB0D
:103290004500C821FEF720FFBB4901EB4500C821CE
:1032A000FEF71AFFB84901EB4500C821FEF714FFED
:1032B000B54901EB4500C821FEF70EFFB24901EB0D
:1032C0004500C821FEF708FFAF4901EB4500C821C2
:1032D000FEF702FFAC4901EB4500C821FEF7FCFEFA
:1032E000A94901EB4500C821FEF7F6FEA64901EB0E
:1032F0004500C82100E070E0FEF7EEFE0220A24982
:1033000001EB45014870A049009001EB4500002306
:103310001A46AFF6D011FEF745FF9B4901EB450079
:103320000A21FEF7D9FE01209749009001EB4500E4
:1033300000231A46AFF60821FEF734FF924901EB4D
:1033400045001E21FEF7C8FE00208F49009001EBCA
:10335000450000231A46AFF2E011FEF723FF8A4929
:1033600001EB45000A21FEF7B7FE874901EB450056
:10337000AFF2F811FFF776FC834901EB45000A2113
:10338000FEF7AAFE804901EB450080A1FFF76AFC29
:103390007D4901EB45000A21FEF79EFE681CC5B27F
:1033A000052D7FF733AF012514E0774800EB45008A
:1033B0004178754A681C02EB40004078814203D195
:1033C00002201146487003E006206F49487003E070
:1033D000681CC5B2052DE8DBBBE1002C7DD16A4835
:1033E00000EB44004078062877D0674800EB4400A3
:1033F000407888B901206449009001EB4400002323
:103400001A46AFF6D421FEF7CDFE5F4901EB44002A
:103410001E21FEF761FEAAE05B4800EB4400407805
:103420000128F8D100205849009001EB4400002306
:103430001A46AFF60431FEF7B5FE534901EB4400DE
:10344000C821FEF749FE504901EB4400C821FEF7B0
:1034500043FE4D4901EB4400C821FEF73DFE4A49B9
:1034600001EB4400C821FEF737FE474901EB440059
:10347000C821FEF731FE444901EB4400C821FEF7A4
:103480002BFE414901EB4400C821FEF725FE3E49D1
:1034900001EB4400C821FEF71FFE3B4901EB44004D
:1034A000C821FEF719FE384901EB4400C821FEF798
:1034B00013FE354901EB4400C821FEF70DFE3249E9
:1034C00001EB4400C821FEF707FE2F4901EB440041
:1034D000C821FEF701FE002507E059E002202A4935
:1034E00001EB45014870681CC5B2052DF6DD0220D0
:1034F0002549009001EB440000231A46AFF6BC3189
:10350000FEF750FE204901EB44000A21FEF7E4FDDE
:1035100001201D49009001EB440000231A46AFF63C
:10352000F031FEF73FFE184901EB44001E21FEF783
:10353000D3FD00201449009001EB440000231A46FB
:10354000AFF2CC31FEF72EFE0F4901EB44000A2109
:10355000FEF7C2FD0C4901EB4400AFF2E031FFF78A
:1035600081FB094901EB44000A21FEF7B5FD06493C
:1035700001EB440005A1FFF775FB034901EB440093
:103580000A21FEF7A9FDE4E0FC9500205354000059
:10359000F84800EB4400407888B90120F5490090D4
:1035A00001EB440000231A46AFF67C41FEF7FAFD1A
:1035B000F04901EB44001E21FEF78EFDBCE0ED4812
:1035C00000EB440040780128F8D10020E949009040
:1035D00001EB440000231A46AFF6AC41FEF7E2FDD2
:1035E000E44901EB4400C821FEF776FDE14901EB17
:1035F0004400C821FEF770FDDE4901EB4400C821FC
:10360000FEF76AFDDB4901EB4400C821FEF764FDCB
:10361000D84901EB4400C821FEF75EFDD54901EB16
:103620004400C821FEF758FDD24901EB4400C821EF
:10363000FEF752FDCF4901EB4400C821FEF74CFDD7
:10364000CC4901EB4400C821FEF746FDC94901EB16
:103650004400C821FEF740FDC64901EB4400C821E3
:10366000FEF73AFDC34901EB4400C821FEF734FDE3
:10367000C04901EB4400C821FEF72EFD0220BD49E0
:1036800001EB44014870BB49009001EB440000236A
:103690001A46AFF65051FEF785FDB64901EB4400DE
:1036A0000A21FEF719FD0120B249009001EB440008
:1036B00000231A46AFF68851FEF774FDAD4901EBC1
:1036C00044001E21FEF708FD0020AA49009001EBEE
:1036D000440000231A46AFF26051FEF763FDA5498E
:1036E00001EB44000A21FEF7F7FCA24901EB44007C
:1036F000AFF27851FFF7B6FA9E4901EB44000A2178
:10370000FEF7EAFC012514E09A4800EB45004178F9
:10371000984A681C02EB40004078814203D10220A5
:103720001146487003E006209249487003E0681C87
:10373000C5B2052DE8DB00BF8E4901EB4400AFF2B6
:10374000B411FFF78FFA8B4901EB44000A21FEF711
:10375000C3FC002038BD08B5002003460246AFF682
:10376000306100908348801CFEF71CFD002003465A
:103770000246AFF6446100907E48001DFEF712FD40
:10378000002003460246AFF6586100907948801D3C
:10379000FEF708FD1E217748801CFEF79DFC1E21C8
:1037A0007448001DFEF798FC1E217248801DFEF72C
:1037B00093FC08BD10B5AFF22C216E48801CFFF7BA
:1037C00051FAAFF238216B48001DFFF74BFAAFF208
:1037D00044216848801DFFF745FA0A216548801C8E
:1037E000FEF77AFC0A216348001DFEF775FC0A21EA
:1037F0006048801DFEF770FC10BDF8B504460D460C
:10380000164600205B49009001EB440000231A4655
:10381000AFF6E461FEF7C6FC564901EB44001E21F9
:10382000FEF75AFC01205349009001EB44000023AD
:103830001A46AFF60071FEF7B5FC4E4901EB4400A5
:103840000A21FEF749FC4B4901EB440000231A46CC
:10385000AFF618710095FEF7A5FC464901EB440050
:103860000A21FEF739FC434901EB440000231A46C4
:10387000AFF634710096FEF795FC3E4901EB44002B
:103880000A21FEF729FC01203A49009001EB44008F
:1038900000231A46AFF66871FEF784FC354901EB48
:1038A00044006421FEF718FC0020F8BDF0B585B097
:1038B000044600208DF808008DF80900208800904B
:1038C000A0788DF80A00002506E0E01C415D0DF1AE
:1038D0000B004155681CC5B29DF80A00A842F4DCF3
:1038E00069462548006802F06BF9064642F6FF7704
:1038F00000BF00BF31462048006802F0F9F90128F6
:1039000002D0781E071EF4D1012F03D801201B49D5
:10391000087002E000201949087005B0F0BD10B52C
:10392000044660882188884244D0208800EB40010A
:10393000201D30F8210040F22911884229D1208829
:1039400000EB4001201D00EB8100C078012817DD4D
:10395000208800EB4001201D00EB8100C078401E54
:10396000C1B2208800EB4002201D00EB8200C17034
:1039700021E00000FC950020AC030020B0030020F3
:103980002088401C20802088962814DB002020807E
:1039900011E0218801EB4102211D01EB8200FFF7BC
:1039A00085FF2088401C20802088962803DB00208B
:1039B000208000E010BD00BFFCE710B55648FFF7BF
:1039C000AEFF5648FFF7ABFF5548FFF7A8FF554835
:1039D000FFF7A5FF5448FFF7A2FF5448FFF79FFFEA
:1039E00010BD10B504F01CFB0121514801F066FE2A
:1039F000FFF7E3FF04F025FB10BD10B504464D4969
:103A000001EB44000123002241F60121FEF7F8FCFE
:103A1000484901EB44003221FEF75EFB454901EBCA
:103A2000440045A1FFF71EF9424901EB4400022181
:103A3000FEF752FB3F4901EB440000231A4641F6D2
:103A40000121FEF7DDFC3B4901EB44003221FEF78A
:103A500043FB10BD38B504460D46002035490090A3
:103A600001EB440000231A4634A1FEF79BFB3149C9
:103A700001EB44005A21FEF72FFB2E4901EB4400D5
:103A800000231A462CA10095FEF78CFB294901EB77
:103A900044005A21FEF720FB01202649009001EB4B
:103AA000440000231A4625A1FEF77CFB214901EBC7
:103AB00044005A21FEF710FB06201E4901EB440189
:103AC000487038BD10B504460123002241F601219B
:103AD0001848FEF795FC174901EB44003221FEF728
:103AE000FBFA144901EB440015A1FFF7BBF811499B
:103AF00001EB44001421FEF7EFFA00231A4641F6C9
:103B000001210C48FEF77CFC0A4901EB44003221FC
:103B1000FEF7E2FA10BD0000B46B0020C072002076
:103B2000CC790020D8800020E4870020F08E00208F
:103B300000140040FC950020505800004D4F00003C
:103B40004951000000BF704700BF3D4A128802F093
:103B50004002002AF9D0C2B2394B9A80704710B5A2
:103B600088B004460121022000F0C8FC0121102089
:103B700000F01EFD07220621324800F0ACFA0722B1
:103B80001146304800F0A7FAC020069002208DF8B8
:103B90001C008DF81D0000208DF81E0001208DF8FE
:103BA0001F0006A9274800F00BFA02940020ADF888
:103BB0000C00ADF80E00ADF81000ADF814000C20AC
:103BC000ADF8120002A91E4800F053FE01211C4866
:103BD00000F0D7FE40211A4800F0BBFF012240F25E
:103BE0002551174800F083FF25208DF8040003209D
:103BF0008DF805008DF8060001208DF8070001A85A
:103C000000F0EDF808B010BD10B504F009FA40F26C
:103C100025510B4800F0A6FF70B1094800F0E0FE06
:103C2000C4B20D2C03D101200749487004E0FF2CD9
:103C300002D101200449087004F003FA10BD00000D
:103C40000010014000040240C203002008B568468D
:103C500004F0A0FA08BD08B5684604F0E5FA08BD0E
:103C600038B504466A46082120460AF0CBFD38BD27
:103C700010B542480078012805D104F0D1F90BF0C5
:103C80004DF804F0DEF910BD70B504466FF0040085
:103C900000F0F2F82046E11704EB5171C1F3C701BF
:103CA000374A1170E11704EB5171CD1035480068A7
:103CB0003549B1FBF0F04543324800684FF47A7162
:103CC000B1FBF0F0314908804FF0E020006940F08E
:103CD00002004FF0E021086108464561006940F0AC
:103CE0000100086170BD2DE9F047074600264FF03E
:103CF000E020D0F814902248007807FB00F8FFF786
:103D0000A5FF4FF0E020856911E04FF0E0208469C5
:103D1000AC420CD0AC4202D2281B064403E0A9EB13
:103D20000400284406442546464500D300E0ECE75D
:103D300000BFFFF790FFBDE8F08770B504460F485D
:103D40000078A0B11248007888B9104800888442F1
:103D500006DB0E48008894FBF0F52846FFF780FF4D
:103D60000A48008894FBF0F100FB114084B24FF444
:103D70007A7104FB01F0FFF7B6FF70BD0904002063
:103D8000C40300208814010840420F00C60300202D
:103D9000080400200948804709480047FEE7FEE77D
:103DA000FEE7FEE7FEE7FEE7FEE7FEE7FEE7FEE7EB
:103DB00004480549054A064B704700005D040008A9
:103DC0008901000830B6002030BC002030B8002047
:103DD00030B8002032490143324A1160704770B553
:103DE000002100230F22C4781CB32E4C246804F455
:103DF000E064C4F5E064C4F30721C1F10404E3B254
:103E00000A4144789C40E1B28478144021430C0775
:103E1000210E254C05786155047804F01F05012416
:103E2000AC4005786D11AD0005F1E025C5F8004105
:103E300009E0047804F01F050124AC401B4D06780E
:103E4000761145F8264070BD194A0A400243154BC9
:103E50001B1F1A60704739B1124A121D12680243C3
:103E6000104B1B1D1A6006E00E4A121D1268824399
:103E70000C4B1B1D1A607047042808D14FF0E0213D
:103E8000096941F004014FF0E022116107E04FF0B1
:103E9000E021096921F004014FF0E022116170472F
:103EA0000000FA050CED00E000E400E080E100E035
:103EB00080FFFF1F10B504469848844208D10121B5
:103EC000084600F086FB0021012000F082FB76E02E
:103ED0009348844208D10121022000F07AFB00219E
:103EE000022000F076FB6AE08E48844208D101216E
:103EF000042000F06EFB0021042000F06AFB5EE06D
:103F00008948844208D10121082000F062FB002189
:103F1000082000F05EFB52E08448844208D1012171
:103F2000102000F056FB0021102000F052FB46E06C
:103F30007F48844208D10121202000F04AFB002163
:103F4000202000F046FB3AE07A48844208D1012163
:103F5000402000F03EFB0021402000F03AFB2EE024
:103F60007548844208D10121802000F032FB0021F5
:103F7000802000F02EFB22E07048844208D101210D
:103F8000801500F026FB0021A01500F022FB16E0B2
:103F90006B48844208D10121401500F01AFB002132
:103FA000601500F016FB0AE06648844207D1012143
:103FB000001500F00EFB0021201500F00AFB10BDDB
:103FC000F0B50A4600210023002400BF3DE0012592
:103FD00005FA01F3156805EA03049C4234D105682B
:103FE0004F000326BE40B543056015794E00B5402D
:103FF0000668354305601579012D02D01579022D2B
:1040000016D185684F000326BE40B54385605579BB
:104010004E00B540866835438560456801268E4070
:10402000B5434560456896798E40B6B235434560E4
:10403000C5684F000326BE40B543C560D5794E0024
:10404000B540C6683543C560491C1029BFD3F0BDD3
:104050004FF6FF7101600021017141718171C171E1
:10406000704708B54FF480320092009A0A430092DC
:10407000009AC261C161009AC261C2690092C269BC
:10408000009208BD0246002013690B400BB10120CD
:1040900000E0002070470146086980B27047024680
:1040A000002053690B400BB1012000E00020704755
:1040B0000146486980B27047018370474183704769
:1040C0000AB1018300E04183704741617047426952
:1040D0004A4042617047F0B5002300244D07ED0EC1
:1040E00002FA05F3CE1000F1200555F826504E07D0
:1040F000F70E0F26BE40B543CF1000F1200646F85C
:104100002750CE1000F1200555F8265045EA03044B
:10411000CE1000F1200545F82640F0BD0000024019
:104120000004024000080240000C0240001002405F
:104130000014024000180240001C0240002002400F
:104140000024024000280240F948006840F00100C5
:10415000F74908600020F64908310860F448006813
:10416000F4490840F2490860F348091D0860F34823
:10417000EF4984310860F0481038091D0860EC48A8
:10418000006820F48020EA4908600020E8490C31EA
:104190000860E7498C31086070470021E44A921CAE
:1041A000117011460870704710B5014600220023B7
:1041B00000204A11012A02D1DD4C236808E0022ABE
:1041C00003D1DB4C7034236802E0D94C743423688B
:1041D00001F01F02012494401C400CB1012000E0BA
:1041E000002010BD38B5002000900024002500BF3D
:1041F0003120FFF7D9FF05460098401C0090009839
:10420000B0F5A04F01D0002DF2D03120FFF7CCFF48
:1042100008B1012400E00024204638BD01460020FA
:10422000C34A106820F0F80040EAC10010607047EF
:10423000C349086070470021BD4A70321170117087
:10424000012802D004280AD104E00121B84A7032C2
:10425000117005E00521B64A7032117000E000BF10
:1042600000BF7047B7490860704770B5049C41EAC9
:1042700082150126C6EB530645EA0645054345EA85
:104280000465AB4E361D356070BDAD49086670479C
:10429000820142EA0172A64B84331A607047A84932
:1042A0008866704710B5830143EA016343EA0273ED
:1042B0009F4C8834236010BDA14908677047A0490E
:1042C000C864704702460020994B0833186820F0F4
:1042D000EC6042EA01031843954B083318607047BD
:1042E00002460020924B0833186820F0784042EADA
:1042F000010318438E4B08331860704701460020B5
:104300008B4A0832106820F00300084310607047A1
:1043100087480830006800F00C0070470146002014
:10432000834A0832106820F0F0000843106070479C
:10433000014600207E4A0832106820F4E05008430D
:104340001060704701460020794A0832106820F456
:10435000604040EAC10010607047F0B500210022C3
:104360000024022500260223714F08373F6807F01A
:104370000C0121B1042905D0082937D105E0724F7D
:10438000076036E0714F076033E0694F3F1D3F68BB
:10439000C7F38056664F3F1D3F6807F03F036EB17D
:1043A0006A4FB7FBF3F7DFF888C10CF1040CDCF8B7
:1043B00000C0CCF3881C07FB0CF40CE0624FB7FB89
:1043C000F3F7DFF86CC10CF1040CDCF800C0CCF39F
:1043D000881C07FB0CF4564F3F1D3F68C7F301478D
:1043E0007F1C7D00B4FBF5F7076002E0564F0760C5
:1043F00000BF00BF4E4F08373F6807F0F0010909C2
:10440000534F7A5C0768D7404760494F08373F6889
:1044100007F4E051890A4E4F7A5C4768D7408760BD
:10442000434F08373F6807F46041490B484F7A5CB7
:104430004768D740C760F0BD002100F44072B2F574
:10444000407F0AD13A4A0832116821F4F811414AF2
:1044500002401143364A08321160354A7032126800
:10446000C0F30B031A43324B70331A60704735495F
:10447000443908607047334940390860704736490D
:104480000860704701460020294A8C32106820F0ED
:104490001F004A1E1043264A8C32106070470146A6
:1044A0000020234A8C32106820F4F8504A1E40EA5B
:1044B00002201F4A8C3210607047014600201C4ABF
:1044C0008C32106820F44010084310607047014699
:1044D0000020174A8C32106820F440000843106016
:1044E000704701460020124A8C32106820F4403098
:1044F00008431060704719490860704739B10C4A89
:104500003032126802430A4B30331A6006E0084A20
:10451000303212688243064B30331A607047F9B16B
:10452000034A343212680243014B34331A601CE0F0
:1045300000380240FFFFF6EA10300024003000206F
:1045400000004742800E47420024F40000127A0027
:10455000C8030020FFFCFF0F5C014742E011474207
:104560008F4A126882438E4B1A60704739B18C4A69
:10457000121D126802438A4B1B1D1A6006E0884A0E
:10458000121D12688243864B1B1D1A60704739B199
:10459000834A0C3212680243814B0C331A6006E0E6
:1045A0007F4A0C32126882437D4B0C331A6070478D
:1045B00039B17B4A103212680243794B10331A60CA
:1045C00006E0774A103212688243754B10331A6046
:1045D000704739B1724A243A12680243704B243B47
:1045E0001A6006E06E4A243A126882436C4B243B00
:1045F0001A60704739B16A4A203A12680243684B20
:10460000203B1A6006E0664A203A12688243644BF7
:10461000203B1A60704739B1614A1C3A1268024364
:104620005F4B1C3B1A6006E05D4A1C3A12688243ED
:104630005B4B1C3B1A60704739B1594A143A1268F7
:104640000243574B143B1A6006E0554A143A12686D
:104650008243534B143B1A60704739B1504A103AA9
:10466000126802434E4B103B1A6006E04C4A103A67
:10467000126882434A4B103B1A60704739B1484A6E
:104680001C3212680243464B1C331A6006E0444A4F
:104690001C3212688243424B1C331A60704739B196
:1046A0003F4A2032126802433D4B20331A6006E035
:1046B0003B4A203212688243394B20331A607047DC
:1046C00039B1374A243212680243354B24331A6019
:1046D00006E0334A243212688243314B24331A6095
:1046E000704739B12E4A2C32126802432C4B2C33BE
:1046F0001A6006E02A4A2C3212688243284B2C3377
:104700001A60704739B1264A303212680243244B8E
:1047100030331A6006E0224A303212688243204B5E
:1047200030331A607047012808D11D493C310968AF
:1047300041F008011A4A3C32116007E018493C3147
:10474000096821F00801164A3C321160704739B1FE
:10475000134A273A12780243114B273B1A7006E09E
:104760000F4A273A127882430D4B273B1A70704745
:104770000B484030006840F08070094940310860C3
:10478000704701460020064A283A12680A400AB1DA
:10479000012000E000207047014926390870704769
:1047A0003438024010B50446FA48844208D1012149
:1047B0001020FFF752FF00211020FFF74EFF57E0B7
:1047C000F548844209D101214804FFF735FF002153
:1047D0004FF40030FFF730FF4AE0F048844209D13F
:1047E00001218804FFF728FF00214FF48020FFF704
:1047F00023FF3DE0EA48844209D10121C804FFF7C4
:104800001BFF00214FF40020FFF716FF30E0E548C2
:10481000844209D101210805FFF70EFF00214FF462
:104820008010FFF709FF23E0DF48844208D101210F
:104830002020FFF712FF00212020FFF70EFF17E0D6
:10484000DA48844209D101218807FFF7F5FE0021EB
:104850004FF08040FFF7F0FE0AE0D548844207D1D0
:1048600001214005FFF7E8FE00216005FFF7E4FEA7
:1048700010BD2DE9FF4705460E460024A14600BFA6
:10488000A046B08900B100BF2C8A24F44054F088BF
:1048900004432C82AC8941F20C608443B088318996
:1048A0000843718908430443AC81AC8A24F4407402
:1048B000B0890443AC826846FFF74FFDB548854296
:1048C00002D0B948854202D1DDF80C9001E0DDF854
:1048D0000890A88900F4004040B109EBC90000EB42
:1048E000091031684900B0FBF1F707E009EBC90096
:1048F00000EB091031688900B0FBF1F76420B7FBC9
:10490000F0F004012009642101FB1078A88900F46B
:10491000004040B1322000EBC800B0FBF1F000F0E5
:104920000700044308E0322000EB08106421B0FBCC
:10493000F1F000F00F0004432C81BDE8FF874FF435
:104940001651016000218180C18001810C214181CB
:1049500000218181704710B502460020108A20F4A2
:1049600070600B884C8823438C882343CC88234376
:104970001843108210BD0021018041808180C180D8
:10498000704721B1828942F40052828104E0828919
:104990004DF6FF731A4082817047028B02F47F420A
:1049A0000283028B0A430283704721B1828942F459
:1049B0000042828103E08289C2F30E028281704745
:1049C00021B1828A42F40062828204E0828A4FF23C
:1049D000FF731A4082827047C1F3080282807047D9
:1049E00001468888C0F308007047028A4FF6F073CA
:1049F0001A400282028A0A430282704721B18289E8
:104A000042F00202828104E082894FF6FD731A406F
:104A10008281704782894FF2FF731A4082818289B6
:104A20000A4382817047028A4FF6DF731A4002827E
:104A3000028A0A430282704721B1028A42F480420C
:104A4000028204E0028A4BF6FF731A40028270472A
:104A5000818941F001018181704721B1828A42F050
:104A60000802828204E0828A4FF6F7731A4082823B
:104A70007047028BD2B20283028B42EA0122028388
:104A8000704721B1828A42F02002828204E0828A49
:104A90004FF6DF731A408282704721B1828A42F05A
:104AA0001002828204E0828A4FF6EF731A408282FB
:104AB0007047828A4FF6FB731A408282828A0A43C9
:104AC0008282704721B1828A42F00202828204E02F
:104AD000828A4FF6FD731A40828270471AB1838A28
:104AE0000B43838202E0838A8B4383827047F0B555
:104AF0000346002400260025002040F66A17B9422C
:104B000000D100BF1846C1F3421401F01F0601276F
:104B100007FA06F5012C01D10C3004E0022C01D17A
:104B2000103000E014301AB107682F43076002E02C
:104B30000768AF430760F0BD02460020B1F5007F73
:104B400000D100BF13880B400BB1012000E0002012
:104B5000704701F40072B2F5007F00D100BFCA4374
:104B60000280704770B50246002400230025002013
:104B700040F66A16B14200D100BFC1F3421501F000
:104B80001F03012606FA03F3012D13D19689334042
:104B900017E00000001001400044004000480040C1
:104BA000004C0040005000400014014000780040DC
:104BB000007C0040022D02D1168A334001E0968A23
:104BC00033400C12012606FA04F41688344013B15F
:104BD0000CB1012000E0002070BD10B500220023C0
:104BE00040F66A14A14200D100BF0A120124944089
:104BF000A3B2DC43048010BD10B50446FE488442D5
:104C000008D101210846FFF728FD00210120FFF708
:104C100024FD9DE0B4F1804F08D101210846FFF743
:104C20000BFD00210120FFF707FD91E0F3488442CE
:104C300008D101210220FFF7FFFC00210220FFF72D
:104C4000FBFC85E0EE48844208D101210420FFF7F7
:104C5000F3FC00210420FFF7EFFC79E0E9488442EF
:104C600008D101210820FFF7E7FC00210820FFF709
:104C7000E3FC6DE0E448844208D101211020FFF7F5
:104C8000DBFC00211020FFF7D7FC61E0DF48844205
:104C900008D101212020FFF7CFFC00212020FFF7C1
:104CA000CBFC55E0DA48844208D101210220FFF70D
:104CB000D4FC00210220FFF7D0FC49E0D548844213
:104CC00009D101210804FFF7C8FC00214FF480300E
:104CD000FFF7C3FC3CE0D048844209D101214804DD
:104CE000FFF7BBFC00214FF40030FFF7B6FC2FE0CC
:104CF000CA48844209D101218804FFF7AEFC002193
:104D00004FF48020FFF7A9FC22E0C548844208D177
:104D100001214020FFF790FC00214020FFF78CFC90
:104D200016E0C048844208D101218020FFF784FCAE
:104D300000218020FFF780FC0AE0BB48844207D1B5
:104D400001218015FFF778FC0021A015FFF774FC06
:104D500010BD00220288A84B98420ED0AC4B98425E
:104D60000BD0B0F1804F08D0A44B984205D0A44B93
:104D7000984202D0A34B984204D14FF68F731A4049
:104D80004B881A43A04B984207D0A04B984204D0BE
:104D90004FF6FF431A400B891A4302804B68C362E7
:104DA0000B880385944B984202D0994B984201D1CD
:104DB0008B7A03860123838270474FF0FF31416075
:104DC00000210180018141808172704701858282CA
:104DD00070470A46002101884FF68F73194011432E
:104DE0000180704741627047C16270470146486A5E
:104DF00070470146088D704721B1028842F00202D7
:104E0000028004E002884FF6FD731A40028070476A
:104E100021B1028842F00402028004E002884FF6C9
:104E2000FB731A400280704721B1028842F0800271
:104E3000028004E002884FF67F731A4002807047B8
:104E400002884FF6F7731A40028002880A430280F4
:104E5000704702884FF6FF431A40028002880A43D7
:104E60000280704721B1028842F00102028004E012
:104E700002884FF6FE731A400280704770B5002416
:104E800000220023058C4FF6FE7635400584028C07
:104E90008388048B4FF68F752C40B51E2C400D88EF
:104EA0002C43751E2A408D892A434D882A43524D32
:104EB000A84202D0564DA84213D14FF6F7752A40AA
:104EC000CD892A434FF6FB752A408D882A434FF639
:104ED000FF652B404FF6FF552B400D8A2B434D8A23
:104EE0002B43838004838D684563028470BD70B555
:104EF000002400220023058C4FF6EF763540058410
:104F0000028C8388048B48F6FF752C404FF6FF45D2
:104F10002C400D884FF6FF7606EA05252C434FF608
:104F2000DF752A408D8906EA05152A434D8806EA71
:104F300005152A43304DA84202D0354DA8421DD157
:104F40004FF67F752A40CD894FF6FF7606EA0515A4
:104F50002A434FF6BF752A408D8806EA05152A4375
:104F60004FF6FF352B404FF2FF752B400D8A06EAB6
:104F700085052B434D8A06EA85052B4383800483F0
:104F80008D688563028470BD70B500240022002303
:104F9000058C4FF6FF6635400584028C8388848B30
:104FA0004FF68F752C404FF6FC752C400D882C4326
:104FB0004FF6FF552A408D894FF6FF7606EA052504
:104FC0002A434D8806EA05252A430B4DA84202D004
:104FD0000F4DA84238D14FF2FF752A40CD894FF6C8
:104FE000FF7606EA05252A434FF6FF352A408D88CD
:104FF00006EA05252A4319E00000014000040040AC
:1050000000080040000C0040001000400014004068
:1050100000040140004001400044014000480140BC
:1050200000180040001C0040002000404EF6FF75B4
:105030002B404DF6FF752B400D8A06EA05152B43D4
:105040004D8A06EA05152B43838084838D68C563EA
:10505000028470BD70B5002200230024058C4EF63A
:10506000FF7635400584038C8488828B48F6FF7573
:105070002A404FF6FF452A400D884FF6FF7606EA94
:1050800005252A434DF6FF752B408D8906EA053527
:105090002B434D8806EA05352B43FE4DA84202D02E
:1050A000FD4DA84208D14BF6FF752C400D8A4FF6F6
:1050B000FF7606EA85152C43848082838D6805641B
:1050C000038470BD002101804180818081608181E5
:1050D000C18101824182704770B5034600200024DF
:1050E0001846183001258D40ACB21D8CA5431D8497
:1050F00009B108290AD100EB610005684FF68F76E7
:10510000354005600568154305600FE00D1FC5F3C8
:105110004E052844056848F6FF7635400560056869
:105120004FF6FF7606EA02263543056070BD4163FF
:10513000704781637047C1637047016470470A46D6
:105140000021018B4FF68F73194011430183704783
:105150000A460021018B48F6FF7319404FF6FF7392
:1051600003EA02231943018370470A460021818B19
:105170004FF68F7319401143818370470A4600210F
:10518000818B48F6FF7319404FF6FF7303EA022341
:105190001943818370470A460021018B4FF6F7734C
:1051A00019401143018370470A460021018B4FF2D9
:1051B000FF7319404FF6FF7303EA0223194301837B
:1051C00070470A460021818B4FF6F773194011434F
:1051D000818370470A460021818B4FF2FF7319408B
:1051E0004FF6FF7303EA02231943818370470A468F
:1051F0000021018B4FF6FB73194011430183704767
:105200000A460021018B4FF6FF3319404FF6FF731A
:1052100003EA02231943018370470A460021818B68
:105220004FF6FB7319401143818370470A460021F2
:10523000818B4FF6FF3319404FF6FF7303EA0223C9
:105240001943818370470A460021018B4FF67F7313
:1052500019401143018370470A460021018BC1F3B5
:105260000E014FF6FF7303EA0223194301837047CF
:105270000A460021818B4FF67F73194011438183C9
:1052800070470A460021818BC1F30E014FF6FF7370
:1052900003EA02231943818370470A460021018CE7
:1052A0004FF6FD7319401143018470470A460021EF
:1052B000018C4FF6F77319401143018470470A4679
:1052C0000021018C4FF6DF7319404FF6FF7303EA9C
:1052D00002131943018470470A460021018C4FF6DE
:1052E0007F7319404FF6FF7303EA021319430184D9
:1052F00070470A460021018C4FF6FF5319404FF6C4
:10530000FF7303EA02231943018470470A46002110
:10531000018C4FF2FF7319404FF6FF7303EA02232B
:105320001943018470470A460021018C4DF6FF7332
:1053300019404FF6FF7303EA0233194301847047A3
:1053400030B5002301248C40A3B2048C9C43048418
:10535000048C02FA01F5ADB22C43048430BD30B5A3
:10536000002304248C40A3B2048C9C430484048C4A
:1053700002FA01F5ADB22C43048430BD828B4FF2AA
:10538000FF331A408283828B4FF6FF7303EA0123B7
:105390001A4382837047F0B50C461546002100225F
:1053A0000026078C4EF6FF7C07EA0C070784818BEA
:1053B000028C4FF6FF7707EA043640F6FF47394084
:1053C0004FF6FF7707EA052739434FF6FF7707EADD
:1053D0000337394345F6FF773A4046F480573A435E
:1053E00081830284F0BD828B4FF6F3731A4082836F
:1053F000828B0A4382837047F0B50C461546002124
:1054000000220026078C4FF6FF6C07EA0C07078482
:10541000818B028C4FF6FF7707EA04264FF60C7754
:1054200039404FF6FF7707EA03172F4339434FF20E
:10543000FF573A4046F480773A4381830284F0BDB7
:10544000028B4FF2FF331A400283028B4FF6FF7339
:1054500003EA01231A4302837047F0B50C46154650
:10546000002100220026078C4FF6EF7C07EA0C078C
:105470000784018B028C4FF6FF7707EA041640F68B
:10548000FF4739404FF6FF7707EA033739434FF6B6
:10549000FF7703E0000001400004014007EA052710
:1054A00039434FF65F773A4046F010073A4301839D
:1054B0000284F0BD028B4FF6F3731A400283028B15
:1054C0000A4302837047F0B50C46154600210022BE
:1054D000068C4FF6FE773E400684018B028C4FF619
:1054E0000C7631407E1C06EA03162E4331434FF6FC
:1054F000F576324044F00106324301830284F0BD68
:1055000070B505460C46208850B92389A288618869
:105510002846FFF7D8FFE1882846FFF7CBFF25E0B4
:10552000208804280AD12389A28861882846FFF7A9
:1055300094FFE1882846FFF783FF17E020880828BA
:105540000AD12389A28861882846FFF755FFE188A0
:105550002846FFF748FF09E02389A288618828468A
:10556000FFF719FFE1882846FFF708FF70BD00210B
:1055700001804180012181800021C180018170472B
:105580002DE9F04105460C4600260127608808B940
:10559000022600E00026A088012801D1022700E0B1
:1055A00001272088A0B92389A28861882846FFF7AF
:1055B0008AFFE1882846FFF77DFF23893A46314676
:1055C0002846FFF74AFFE1882846FFF739FF13E036
:1055D0002389A28861882846FFF73FFFE188284693
:1055E000FFF72EFF23893A4631462846FFF76BFF27
:1055F000E1882846FFF75EFFBDE8F0810146486B71
:1056000070470146886B70470146C86B704701467A
:10561000086C70470A884B881A438B881A43CB88DA
:105620001A430B891A434B891A438B891A43A0F8F2
:10563000442070470021018041808180C180018128
:1056400041818181704731B1B0F8442042F4004279
:10565000A0F8442005E0B0F84420C2F30E02A0F800
:105660004420704721B1828842F00402828004E025
:1056700082884FF6FB731A408280704721B182887E
:1056800042F00102828004E082884FF6FE731A40E5
:10569000828070471AB183890B43838102E083893A
:1056A0008B43838170478182704702460020138AB2
:1056B0000B400BB1012000E000207047CA4302827A
:1056C000704730B50246002000230024158A05EA01
:1056D0000103958905EA010413B10CB1012000E032
:1056E000002030BDCA430282704741EA0203A0F89D
:1056F000483070471AB183890B43838102E0838964
:105700008B438381704721B1828842F008028280F6
:1057100004E082884FF6F7731A408280704701894F
:105720004FF6F8721140018170470A460021018945
:105730004FF68F73194011430181704730B504460D
:105740000D4629462046FFF7F0FF208940F007006C
:10575000208130BD2DE9F04104460D4616461F4616
:10576000602D06D13B46012231462046FFF775FEEB
:1057700005E03B46012231462046FFF7A4FE2946BC
:105780002046FFF7D2FF208940F007002081BDE8C6
:10579000F08130B50C4600210189C9B24FF6FF7582
:1057A00005EA0325154325432943018130BD2DE931
:1057B000F04105460E4617469846002443463A46B1
:1057C00031462846FFF7E5FF2C894FF6F870044074
:1057D00044F007044FF68F70044044F070042C81AD
:1057E000BDE8F081F0B504460D4616461F463B461F
:1057F000324629462046FFF7CCFF208940F48040FE
:105800002081F0BD82884FF68F731A408280828893
:105810000A438280704702894FF6F8731A4002816A
:1058200002890A430281704702894FF67F731A404A
:10583000028102890A4302817047F0B50C46154681
:105840001E460021002200230189028B038C4FF6A3
:10585000F877394021434FF6FC473A4040F20117B0
:105860003A434FF6DD773B404FF6FF7707EA0617DE
:105870002F433B43018102830384F0BD21B1828821
:1058800042F08002828004E082884FF67F731A40E3
:1058900082807047A0F850107047000010B5044691
:1058A000FE48844209D101214806FEF7C5FE0021C9
:1058B0004FF00070FEF7C0FE08E001218806FEF7F9
:1058C000BBFE00214FF08060FEF7B6FE10BD30B584
:1058D000024600200023146824F0020414601468B7
:1058E00044F00104146000E05B1C546804F00104FF
:1058F0001CB94FF6FF74A342F6D1546804F00104BA
:105900000CB900206CE08C79012C04D1146844F0AF
:105910008004146003E0146824F080041460CC79DF
:10592000012C04D1146844F04004146003E01468AE
:1059300024F0400414600C7A012C04D1146844F063
:105940002004146003E0146824F0200414604C7AEE
:10595000012C04D1146844F01004146003E01468AE
:1059600024F0100414608C7A012C04D1146844F0E3
:105970000804146003E0146824F008041460CC7A6E
:10598000012C04D1146844F00404146003E014688A
:1059900024F0040414608C78A407CD7844EA0564EC
:1059A0000D7944EA05444D7944EA05540D886D1E8D
:1059B0002C43D461146824F001041460002300E037
:1059C0005B1C546804F001041CB14FF6FF74A34241
:1059D000F6D1546804F001040CB1002000E001206D
:1059E00030BD10B50021837A012202FA03F1AC4ADE
:1059F000126842F00102AA4B1A60A94A1C321268CE
:105A00008A43A74B1C331A60027BCAB9A44A0C32E2
:105A100012688A43A24B0C331A604288C38842EA58
:105A200003439F4A4032847A42F8343002888388A4
:105A300042EA03439A4A4032847A02EBC40253603A
:105A4000027B012A19D1964A0C3212680A43944B00
:105A50000C331A604288038842EA0343904A40327A
:105A6000847A42F83430C288838842EA03438C4AFD
:105A70004032847A02EBC4025360C27A3AB9884A4F
:105A8000121D12688A43864B1B1D1A6006E0844A69
:105A9000121D12680A43824B1B1D1A60028932B91B
:105AA0007F4A143212688A437D4B14331A6002898C
:105AB000012A06D17A4A143212680A43784B143309
:105AC0001A60427B012A06D1754A1C3212680A43C9
:105AD000734B1C331A60724A126822F00102704B39
